:100000004DC0000069C0000067C0000065C000006E
:1000100063C0000019C700005FC000005DC00000A1
:100020005BC0000059C0000057C0000055C0000070
:10003000A8C2000051C000004FC000004DC0000029
:10004000BBC1000049C0000090C5000045C00000D1
:1000500043C0000041C000003FC000003DC00000A0
:100060003BC0000039C0000037C0000035C00000B0
:1000700033C0000031C000002FC000002DC00000C0
:100080002BC0000029C0000027C000000501180196
:1000900031014A0163017B019301AB0111241FBEB1
:1000A000CFEFD0E1DEBFCDBF12E0A0E0B1E0ECE2E7
:1000B000F9E100E00BBF02C007900D92AA36B1072C
:1000C000D9F724E0AAE6B2E001C01D92AC3DB20728
:1000D000E1F7B7D20C94940C93CF81B38F7081BBAE
:1000E000089520B3422F50E021E030E002C0220FFB
:1000F000331F6A95E2F72423352321153105B9F022
:10010000FC01E659FD4F4081411111C02FEF3DEE3A
:1001100042E0215030404040E1F700C00000FC01C7
:10012000E659FD4F21E0208380E090E00895232BE5
:10013000B1F4FC01E659FD4F2081213099F42FEFF5
:100140003DEE42E0215030404040E1F700C0000069
:10015000FC01E659FD4F108281E090E0089580E0B7
:1001600090E0089580E090E008959FEF94BB8AB3FB
:10017000806F8ABB8AB38F608ABB95BB08950F934B
:100180001F93CF93DF9300D000D0CDB7DEB78C01A3
:10019000FB0180819181A281B38189839A83AB83A2
:1001A000BC838091710281111CC080918A028130D0
:1001B00079F469817A818B819C812CE030E040E088
:1001C00050E00E941D0969837A838B839C8311C050
:1001D0008CE090E0A0E0B0E089839A83AB83BC839D
:1001E00008C08DE090E0A0E0B0E089839A83AB8303
:1001F000BC83E0916E02F0916F02E830F10508F0E7
:10020000C1C0EA5BFF4F0C943F0980E88BBBF8014B
:1002100060817181828193812AE030E040E050E08A
:100220000E941D09FB01EC57FE4F808185BBAAC0CF
:1002300080E48BBBF80160817181828193812AE027
:1002400030E040E050E0F9D7CA01B90126E030E0E3
:1002500040E050E0F2D7FB01EC57FE4F808185BBB8
:1002600091C080E28BBBF8016081718182819381B2
:100270002CE330E040E050E0E0D7CA01B9012AE0C9
:1002800030E040E050E0D9D7FB01EC57FE4F8081D1
:1002900085BB78C080E18BBBF80160817181828170
:1002A000938128E532E040E050E0C7D7CA01B901A8
:1002B00026E030E040E050E0C0D7FB01EC57FE4FB5
:1002C000808185BB5FC088E08BBBE091B101F0E02D
:1002D000EE0FFF1FE050FF4F0190F081E02D2081D5
:1002E000318189819A81AB81BC81F901E80FF91FC5
:1002F000808185BB47C084E08BBBE091B101F0E019
:10030000EE0FFF1FE050FF4F0190F081E02D2281A2
:10031000338189819A81AB81BC81F901E80FF91F92
:10032000808185BB2FC082E08BBBE091B101F0E002
:10033000EE0FFF1FE050FF4F0190F081E02D248170
:10034000358189819A81AB81BC81F901E80FF91F60
:10035000808185BB17C081E08BBBE091B101F0E0EB
:10036000EE0FFF1FE050FF4F0190F081E02D26813E
:10037000378189819A81AB81BC81F901E80FF91F2E
:10038000808185BB80916E0290916F02019687708B
:100390009078992324F40197886F9F6F019690932A
:1003A0006F0280936E020F900F900F900F90DF916D
:1003B000CF911F910F9108951F920F920FB60F9238
:1003C00011240BB60F920F931F932F933F934F93CC
:1003D0005F936F937F938F939F93AF93BF93EF93AD
:1003E000FF9386E082BF80918A028130B1F58091CF
:1003F000850290918602A0918702B09188020196B1
:10040000A11DB11D8093850290938602A09387025F
:10041000B09388026091AD017091AE018091AF01FF
:100420009091B00126E030E040E050E006D7009126
:100430008102109182022091830230918402DC01BA
:10044000CB01800F911FA21FB31F80938102909355
:100450008202A0938302B093840280917D029091E6
:100460007E02A0917F02B09180020196A11DB11D74
:1004700080937D0290937E02A0937F02B0938002CE
:10048000FF91EF91BF91AF919F918F917F916F916C
:100490005F914F913F912F911F910F910F900BBE44
:1004A0000F900FBE0F901F90189586E082BF83B704
:1004B000846083BF87B7816087BF089587B38D60ED
:1004C00087BB88B3827F88BB089507DE4EDEEDDFF1
:1004D000C5D2DCD2EDD2C1D3F1DF8FE891E09093A9
:1004E000D9048093D8047894089598B3927F98BBE8
:1004F000813041F018F0823049F0089588B381606E
:1005000088BB089588B3846088BB089588B38860E9
:1005100088BB0895E2E6F0E080818F73808380914C
:100520007402882311F0823049F4E2E6F0E0808121
:100530008064808381E08093B1010895813039F433
:10054000E2E6F0E08081806880831092B101089536
:1005500081E08093730280938A02809389028AEFFC
:1005600090E090938300809382000895109273022C
:1005700010928A02109289021092830010928200D7
:1005800008951F920F920FB60F9211240BB60F927F
:100590002F933F934F935F936F937F938F939F938B
:1005A000AF93BF93EF93FF9380918A028823B1F1B9
:1005B00080917302882391F18091790290917A025F
:1005C000A0917B02B0917C02892B8A2B8B2B31F17D
:1005D0008091790290917A02A0917B02B0917C0285
:1005E0000197A109B1098093790290937A02A093AF
:1005F0007B02B0937C0281E080938D02809179022E
:1006000090917A02A0917B02B0917C02892B8A2B77
:100610008B2B21F4ABDF81E080938D02FF91EF9172
:10062000BF91AF919F918F917F916F915F914F910A
:100630003F912F910F900BBE0F900FBE0F901F9008
:10064000189543DF32D31DD380918A02882309F4A1
:100650007EC08091850290918602A0918702B09120
:100660008802883E9340A105B10508F470C010923D
:100670008502109286021092870210928802809161
:10068000790290917A02A0917B02B0917C02892B31
:100690008A2B8B2BD9F08091790290917A02A091CC
:1006A0007B02B0917C020197A109B1098093790284
:1006B00090937A02A0937B02B0937C026091A9018F
:1006C0007091AA0189E792E05ADD41C0E09174027D
:1006D000EF5FE0937402E33040F5F0E0EE0FFF1FB0
:1006E000EE0FFF1FE356FE4F80819181A281B381FF
:1006F0008093790290937A02A0937B02B0937C025C
:1007000081E0809389028AEF90E090938300809348
:10071000820000DF6091A9017091AA0189E792E04F
:100720002EDD80917402E1DE12C0109275021092EB
:100730007602109277021092780218DF10927002FF
:100740008FEFD3DE62EB71E080ED91E0ECD1809130
:100750007402823069F4409181025091820260916A
:100760008302709184024A3F51056105710578F456
:10077000823041F18091810290918202A0918302A6
:10078000B0918402843F9140A105B105D8F0109248
:100790008102109282021092830210928402809150
:1007A000750290917602A0917702B091780201963D
:1007B000A11DB11D8093750290937602A0937702DC
:1007C000B093780280917D0290917E02A0917F0289
:1007D000B09180020297A105B10588F010927D02C8
:1007E00010927E0210927F02109280026091A90105
:1007F0007091AA018091AB019091AC01C0DC64E0E2
:1008000070E080E090E06DDC892B09F442C081E06B
:1008100090917102911180E0809371028091700239
:10082000813081F018F08230C1F00CCF81E08093EC
:10083000700210928A021092890210928300109224
:10084000820000CF1092700210928A0210928902E8
:100850001092830010928200F5CE90918A0281E07E
:10086000911180E080938A029091890281E0911138
:1008700080E08093890280918902882319F08AEFB1
:1008800090E002C080E090E090938300809382002B
:10089000D9CE65E070E081E090E023DC892B89F11E
:1008A00081E090E011D180917002813009F0CACED0
:1008B0008091790290917A02A0917B02B0917C02A2
:1008C00083369105A105B10508F0BCCE809179026F
:1008D00090917A02A0917B02B0917C020A96A11DB0
:1008E000B11D8093790290937A02A0937B02B0931A
:1008F0007C026091A9017091AA0189E792E03FDC36
:10090000A1CE66E070E082E090E0EBDB892B09F499
:100910004FC081E090E0D8D080917002813031F5F5
:100920008091790290917A02A0917B02B0917C0231
:10093000892B8A2B8B2BD1F08091790290917A02AE
:10094000A0917B02B0917C020A97A109B109809322
:10095000790290937A02A0937B02B0937C0260911B
:10096000A9017091AA0189E792E009DC80917002E7
:10097000811168CE1092740281E08093730280919D
:100980009D0190919E01A0919F01B091A001809343
:10099000790290937A02A0937B02B0937C02D8DD17
:1009A0006091A9017091AA0189E792E0E8DB4ACE43
:1009B00067E070E083E090E094DB892B09F442CE9D
:1009C00081E090E081D080917002813031F5E0913A
:1009D0007202F0E08091790290917A02A0917B02FC
:1009E000B0917C02EE0FFF1FEE0FFF1FE356FE4F8C
:1009F00080839183A283B3836091A9017091AA013E
:100A000089E792E0BCDB8091720290E0019663E09E
:100A100070E000D48093720215CE811113CE8CE069
:100A2000EDE9F1E0DF011D928A95E9F71092790274
:100A300010927A0210927B0210927C02109289022C
:100A40001092B10110928300109282006091A9016E
:100A50007091AA0189E792E092DBF4CD82B18862BD
:100A600082B9ABE8B0E08C9181608C93EAE8F0E069
:100A70008081886080838C9188608C938081836082
:100A8000808310928300109282000895E1E6F0E0E6
:100A90008081806C8083E2E6F0E080818F738083C8
:100AA0008081806480831092830010928200089578
:100AB00087B3806287BB80E48FBD8AE08EBD1092D1
:100AC0007A001BBC1ABC089520E030E01AC044EF45
:100AD00051E05BBD4ABD4FEF53EF61E041505040E4
:100AE0006040E1F700C000001BBC1ABC4FEF53EFA1
:100AF00061E0415050406040E1F700C000002F5FCE
:100B00003F4F281739071CF3089507C08FE99FE06E
:100B10000197F1F700C00000C9019C012150310983
:100B2000892BA1F708950F931F93CF93DF93EC01C7
:100B30008B0110C09BBD8ABDF801819191918F01FD
:100B4000E4DF22961BBC1ABC8FE39CE90197F1F706
:100B500000C00000888199818033EFE29E0751F741
:100B6000DF91CF911F910F9108951F920F920FB6B1
:100B70000F9211240BB60F922F933F934F935F93D5
:100B80006F937F938F939F93AF93BF93EF93FF9355
:100B9000CF93DF931F92CDB7DEB78CB18983898164
:100BA0008A3049F52091900230919102C901019655
:100BB000909391028093900280918B0290918C028D
:100BC00048E2429FF001439FF00D1124EC56FD4F87
:100BD000E80FF91F108280919002909191026AE0D3
:100BE00070E018D3909391028093900210928C023F
:100BF00010928B021CC060919002709191028091C2
:100C00008B0290918C029C012F5F3F4F30938C029E
:100C100020938B02498158E2569F9001579F300DD7
:100C200011242C563D4FF901E80FF91F40830F9016
:100C3000DF91CF91FF91EF91BF91AF919F918F91F4
:100C40007F916F915F914F913F912F910F900BBECC
:100C50000F900FBE0F901F901895109290008FEC80
:100C600089B98BB182608BB9E5E9F0E0808186605B
:100C700080838AB188698AB908955D9BFECF8CB95B
:100C8000089580918D02882379F084E294E09F9307
:100C90008F9380EF91E09F938F931CD310928D02DE
:100CA0000F900F900F900F900895CF9320918E0288
:100CB00030918F028091900290919102281739070C
:100CC00009F4C0C020918E0230918F02C8E2C29F09
:100CD000C001C39F900D11248C569D4F9F938F93FD
:100CE00083EF91E09F938F931F9280E88F9384E22C
:100CF00094E09F938F9301D381E080938D022091A4
:100D00008E0230918F02C29FC001C39F900D1124AB
:100D100045E050E069E072E08C569D4FCDD22DB792
:100D20003EB7285F3F4F0FB6F8943EBF0FBE2DBFB2
:100D3000892B09F043C00CDC8091790290917A02F2
:100D4000A0917B02B0917C02892B8A2B8B2B81F4A2
:100D500080919D0190919E01A0919F01B091A00171
:100D60008093790290937A02A0937B02B0937C02E5
:100D7000EFDB8091790290917A02A0917B02B09191
:100D80007C02BF93AF939F938F938FE092E09F93EA
:100D90008F931F9280E88F9384E294E09F938F93C8
:100DA000ACD281E080938D026CDF8DB79EB70A963E
:100DB0000FB6F8949EBF0FBE8DBF38C020918E0233
:100DC00030918F0248E2429FC001439F900D112451
:100DD00044E050E060E372E08C569D4F6DD2892B69
:100DE00029F5C4DB8091790290917A02A0917B026F
:100DF000B0917C02BF93AF939F938F9385E392E072
:100E00009F938F931F9280E88F9384E294E09F9347
:100E10008F9373D281E080938D022DB73EB7265F0A
:100E20003F4F0FB6F8943EBF0FBE2DBF80918E028C
:100E300090918F0201966AE070E0ECD190938F025E
:100E400080938E02CF9108951F920F920FB60F924A
:100E500011240BB60F922F933F934F935F936F9391
:100E60007F938F939F93AF93BF93EF93FF930C9BCD
:100E700003C01DBC1CBC31C06CB57DB580E090E0EA
:100E8000D8D020E034E244E759E461D120E030E0FA
:100E900040E854E45CD120E034E244E75BE430D045
:100EA00097D07093930260939202809192029091F6
:100EB00093026AE370E0AED17F936F938EE592E088
:100EC0009F938F9384EA94E09F938F9352D20F90D5
:100ED0000F900F900F900F900F90FF91EF91BF9197
:100EE000AF919F918F917F916F915F914F913F91C2
:100EF0002F910F900BBE0F900FBE0F901F90189563
:100F00000CD0EBC0E3D040F0DAD030F021F45F3FFA
:100F100019F0CCC0511115C1CFC0F0D098F399236E
:100F2000C9F35523B1F3951B550BBB27AA276217AD
:100F30007307840738F09F5F5F4F220F331F441FF2
:100F4000AA1FA9F333D00E2E3AF0E0E830D091502A
:100F50005040E695001CCAF729D0FE2F27D0660F17
:100F6000771F881FBB1F261737074807AB07B0E856
:100F700009F0BB0B802DBF01FF2793585F4F2AF06C
:100F80009E3F510568F092C0DCC05F3FECF3983E95
:100F9000DCF3869577956795B795F7959F5FC9F7C9
:100FA000880F911D9695879597F90895E1E0660F52
:100FB000771F881FBB1F621773078407BA0720F0CB
:100FC000621B730B840BBA0BEE1F88F7E095089534
:100FD00004D06894B111B5C0089598D088F09F5797
:100FE00090F0B92F9927B751A0F0D1F0660F771F75
:100FF000881F991F1AF0BA95C9F712C0B13081F055
:101000009FD0B1E008959CC0672F782F8827B85FE4
:1010100039F0B93FCCF3869577956795B395D9F7B5
:101020003EF490958095709561957F4F8F4F9F4FBF
:101030000895E89409C097FB3EF4909580957095CB
:1010400061957F4F8F4F9F4F9923A9F0F92F96E914
:10105000BB279395F695879577956795B795F11189
:10106000F8CFFAF4BB0F11F460FF1BC06F5F7F4F26
:101070008F4F9F4F16C0882311F096E911C0772338
:1010800021F09EE8872F762F05C0662371F096E841
:10109000862F70E060E02AF09A95660F771F881F10
:1010A000DAF7880F9695879597F9089597F99F67CE
:1010B00080E870E060E008959FEF80EC08950024E0
:1010C0000A941616170618060906089500240A94AD
:1010D00012161306140605060895092E0394000C33
:1010E00011F4882352F0BB0F40F4BF2B11F460FFC2
:1010F00004C06F5F7F4F8F4F9F4F089557FD9058EB
:10110000440F551F59F05F3F71F04795880F97FBCB
:10111000991F61F09F3F79F0879508951216130685
:101120001406551FF2CF4695F1DF08C016161706B4
:101130001806991FF1CF86957105610508940895E9
:10114000E894BB2766277727CB0197F908950BD042
:10115000C4CFB5DF28F0BADF18F0952309F0A6CF89
:10116000ABCF1124EECFCADFA0F3959FD1F3950F3B
:1011700050E0551F629FF001729FBB27F00DB11D1B
:10118000639FAA27F00DB11DAA1F649F6627B00DAB
:10119000A11D661F829F2227B00DA11D621F739F94
:1011A000B00DA11D621F839FA00D611D221F749FA2
:1011B0003327A00D611D231F849F600D211D822FE9
:1011C000762F6A2F11249F5750408AF0E1F0882330
:1011D0004AF0EE0FFF1FBB1F661F771F881F91503D
:1011E0005040A9F79E3F510570F060CFAACF5F3FF6
:1011F000ECF3983EDCF3869577956795B795F79570
:10120000E7959F5FC1F7FE2B880F911D96958795F7
:1012100097F9089597FB072E16F4009406D077FDF2
:1012200008D036D007FC05D03EF4909581959F4FAD
:101230000895709561957F4F0895A1E21A2EAA1B1B
:10124000BB1BFD010DC0AA1FBB1FEE1FFF1FA21776
:10125000B307E407F50720F0A21BB30BE40BF50B73
:10126000661F771F881F991F1A9469F760957095FC
:10127000809590959B01AC01BD01CF010895EE0FC3
:10128000FF1F0024001C0BBE0790F691E02D09946F
:10129000AA1BBB1B51E107C0AA1FBB1FA617B7079C
:1012A00010F0A61BB70B881F991F5A95A9F78095B8
:1012B0009095BC01CD010895FB01DC0141505040E7
:1012C00030F08D910190801919F40020B9F7881B36
:1012D000990B0895CF93DF93CDB7DEB7AE014B5F87
:1012E0005F4FFA0161917191AF018091D8049091A3
:1012F000D9046DD0DF91CF9108950F931F93CF93B1
:10130000DF93CDB7DEB72E970FB6F894DEBF0FBED2
:10131000CDBF0D891E898F89988D26E02C831A8375
:10132000098397FF02C080E090E801979E838D8338
:10133000AE01455E5F4F698D7A8DCE01019647D033
:101340004D815E8157FD0AC02F81388542175307B2
:101350000CF49A01F801E20FF31F10822E960FB6DB
:10136000F894DEBF0FBECDBFDF91CF911F910F91DB
:1013700008950F931F93CF93DF93CDB7DEB72E97CA
:101380000FB6F894DEBF0FBECDBF0D891E8986E073
:101390008C831A8309838FEF9FE79E838D83AE0131
:1013A000475E5F4F6F89788DCE01019610D0EF8137
:1013B000F885E00FF11F10822E960FB6F894DEBF6D
:1013C0000FBECDBFDF91CF911F910F9108952F9246
:1013D0003F924F925F926F927F928F929F92AF92C5
:1013E000BF92CF92DF92EF92FF920F931F93CF9312
:1013F000DF93CDB7DEB72B970FB6F894DEBF0FBEE5
:10140000CDBF6C017B018A01FC01178216828381AA
:1014100081FFBFC1CE0101963C01F6019381F70126
:1014200093FD859193FF81917F01882309F4ADC1DC
:10143000853239F493FD859193FF81917F01853247
:1014400021F4B60190E0D6D1E8CF912C212C312C9B
:10145000FFE1F315D8F08B3279F038F4803279F06F
:101460008332A1F4232D20611DC08D3261F08033C1
:1014700069F4232D216016C0832D8260382EE32D60
:10148000E4603E2E2AC0F32DF8601DC037FC2DC04D
:1014900020ED280F2A3040F08E32B9F436FC75C1A9
:1014A000232D2064322E19C036FE06C08AE0989E95
:1014B000200D1124922E11C0EAE02E9E200D112441
:1014C000222EF32DF0623F2E08C08C3621F4832D9E
:1014D0008068382E02C0883641F4F70193FD85916B
:1014E00093FF81917F018111B3CF982F9F7D9554F8
:1014F000933028F40C5F1F4F9FE399830DC0833610
:1015000031F0833771F0833509F055C020C0F80100
:10151000808189830E5F1F4F88248394912C53010F
:1015200012C02801F2E04F0E511CF801A080B180DA
:1015300036FE03C0692D70E002C06FEF7FEFC5017A
:101540004ED14C018201F32DFF773F2E15C02801AB
:1015500022E0420E511CF801A080B18036FE03C08B
:10156000692D70E002C06FEF7FEFC5012DD14C01F6
:10157000F32DF0683F2E820133FC19C0822D90E0DC
:1015800088169906A0F4B60180E290E033D12A943F
:10159000F5CFF50137FC859137FE81915F01B601EA
:1015A00090E028D121102A9421E0821A9108811418
:1015B000910479F7E1C0843611F0893639F5F801E4
:1015C00037FE07C060817181828193810C5F1F4F5C
:1015D00008C060817181072E000C880B990B0E5F8B
:1015E0001F4FF32DFF763F2E97FF09C090958095F2
:1015F000709561957F4F8F4F9F4FF0683F2E2AE087
:1016000030E0A30133D1882E861844C0853731F4E9
:10161000232D2F7EB22E2AE030E025C0932D997F16
:10162000B92E8F36C1F018F4883579F0AEC0803706
:1016300019F0883721F0A9C0E92FE061BE2EB4FE71
:101640000DC0FB2DF460BF2E09C034FE0AC0292F47
:101650002660B22E06C028E030E005C020E130E070
:1016600002C020E132E0F801B7FE07C0608171815D
:10167000828193810C5F1F4F06C06081718180E081
:1016800090E00E5F1F4FA301F1D0882E8618FB2D2E
:10169000FF773F2E36FE0DC0232D2E7FA22E8914FC
:1016A00058F434FE0BC032FC09C0832D8E7EA82E68
:1016B00005C0B82CA32C03C0B82C01C0B92CA4FEC3
:1016C0000FC0FE01E80DF11D8081803321F49A2DB9
:1016D000997EA92E09C0A2FE06C0B394B39404C09B
:1016E0008A2D867809F0B394A3FC10C0A0FE06C032
:1016F000B21480F4280C922C9B180DC0B21458F42C
:10170000B60180E290E076D0B394F8CFB21418F42A
:101710002B1802C0982C212CA4FE0FC0B60180E328
:1017200090E068D0A2FE16C0A1FC03C088E790E05C
:1017300002C088E590E0B6010CC08A2D867851F091
:10174000A1FE02C08BE201C080E2A7FC8DE2B601DF
:1017500090E050D0891430F4B60180E390E04AD094
:101760009A94F8CF8A94F301E80DF11D8081B601B7
:1017700090E040D08110F6CF222009F44ECEB60181
:1017800080E290E037D02A94F7CFF60186819781E6
:1017900002C08FEF9FEF2B960FB6F894DEBF0FBEFF
:1017A000CDBFDF91CF911F910F91FF90EF90DF9010
:1017B000CF90BF90AF909F908F907F906F905F90F1
:1017C0004F903F902F900895FC010590615070401C
:1017D0000110D8F7809590958E0F9F1F0895FC01FA
:1017E0006150704001900110D8F7809590958E0F50
:1017F0009F1F08950F931F93CF93DF93FB012381C6
:1018000021FD03C08FEF9FEF2CC022FF16C0468141
:101810005781248135814217530744F4A081B18157
:101820009D012F5F3F4F318320838C932681378129
:101830002F5F3F4F3783268314C08B01EC01FB01E0
:101840000084F185E02D0995892BE1F6D8011696E3
:101850008D919C911797019617969C938E9316974E
:10186000CE01DF91CF911F910F910895FA01AA2720
:10187000283051F1203181F1E8946F936E7F6E5FD3
:101880007F4F8F4F9F4FAF4FB1E03ED0B4E03CD081
:10189000670F781F891F9A1FA11D680F791F8A1F64
:1018A000911DA11D6A0F711D811D911DA11D20D0CB
:1018B00009F468943F912AE0269F11243019305D85
:1018C0003193DEF6CF010895462F4770405D419376
:1018D000B3E00FD0C9F7F6CF462F4F70405D4A33C3
:1018E00018F0495D31FD4052419302D0A9F7EACF8B
:1018F000B4E0A6959795879577956795BA95C9F7BA
:1019000000976105710508959B01AC010A2E0694AC
:101910005795479537952795BA95C9F7620F731F65
:0C192000841F951FA01D0895F894FFCFB0
:10192C000C0104013E013001220114017601680111
:10193C005A014C01FFFFFFFFFFFEDECEC6C6C6C636
:10194C009292FFFFFFFFFEFEFEFEFEF6F6F6CE863F
:10195C00FFFFFFFEFEFEFEFEFEFEF6F6C0C7FBF925
:10196C00F8F8F8F8F8F8F8F8F8F08CCEFFFFFFF775
:10197C00E7C7C6C6C6C6C6C69292FFFFF7F7F7F70B
:10198C00F7F6F6F6F6F6CE86FFF7F7F7F7F7F7F772
:10199C00F6F6F6F6C0C7F7F7F7F7F7F7F7F7F7F637
:1019AC00F4F08CCEC0F9A4B0999282D880987F00C4
:1019BC00000002000000003D06000000000A0000CC
:1019CC00000A0000000A0000007502790205000000
:1019DC000001AA00AA00AA005501AA00AA00AA00A8
:1019EC00AA00AA00AA00AA005501AA00AA00AA02ED
:1019FC00BC03F6027E02DE01BC0338027E02F60254
:101A0C0053037E02DE01FA0138027E02BC03302F42
:101A1C00257300526563656976656420636F6D6D2F
:101A2C00616E643A2025730A007374617274003C11
:101A3C0057617368696E6720726573756D65643E76
:101A4C002074696D65203D202564207365630A0050
:101A5C0073746F70003C57617368696E67207061B6
:101A6C00757365643E2074696D652072656D61697E
:101A7C006E696E673A202564207365630A00646999
:0A1A8C00733A202564636D0A000020
:00000001FF
